:020000040800F2
:1000000000500020218C0008D18A0008DD8A0008F9
:10001000E38A0008E98A0008EF8A0008000000006F
:10002000000000000000000000000000F58A000849
:10003000018B0008000000000D8B0008198B0008E0
:10004000698C0008698C0008698C0008698C0008BC
:10005000698C0008698C0008698C0008698C0008AC
:10006000698C0008698C0008698C0008698C00089C
:10007000698C0008698C0008258B0008698C0008D1
:10008000698C0008698C0008698C0008698C00087C
:10009000698C0008698C0008698C0008698C00086C
:1000A000698C0008398B0008698C0008698C00088D
:1000B000698C0008698C0008698C0008698C00084C
:1000C000698C0008698C0008698C0008698C00083C
:1000D000698C00084D8B0008698C0008698C000849
:1000E000698C0008698C0008698C00080000000019
:1000F0000000000000000000000000000000000000
:0C01000000000000000000005FF808F1A3
:1001100010B5054C237833B9044B13B10448AFF341
:1001200000800123237010BD380200200000000071
:10013000389E000808B5034B1BB103490348AFF3D1
:10014000008008BD000000003C020020389E00082E
:10015000034613F8012B002AFBD1181A0138704707
:1001600081F0004102E000BF83F0004330B54FEA68
:1001700041044FEA430594EA050F08BF90EA020FD5
:100180001FBF54EA000C55EA020C7FEA645C7FEA68
:10019000655C00F0E2804FEA5454D4EB5555B8BF8B
:1001A0006D420CDD2C4480EA020281EA030382EAFC
:1001B000000083EA010180EA020281EA0303362D8E
:1001C00088BF30BD11F0004F4FEA01314FF4801C61
:1001D0004CEA113102D0404261EB410113F0004F73
:1001E0004FEA03334CEA133302D0524263EB43032A
:1001F00094EA050F00F0A780A4F10104D5F1200EC8
:100200000DDB02FA0EFC22FA05F2801841F1000122
:1002100003FA0EF2801843FA05F359410EE0A5F1F6
:1002200020050EF1200E012A03FA0EFC28BF4CF027
:10023000020C43FA05F3C01851EBE37101F00045DD
:1002400007D54FF0000EDCF1000C7EEB00006EEBEA
:100250000101B1F5801F1BD3B1F5001F0CD3490874
:100260005FEA30004FEA3C0C04F101044FEA4452CB
:1002700012F5800F80F09A80BCF1004F08BF5FEA52
:10028000500C50F1000041EB045141EA050130BD32
:100290005FEA4C0C404141EB010111F4801FA4F1D5
:1002A0000104E9D191F0000F04BF01460020B1FA2A
:1002B00081F308BF2033A3F10B03B3F120020CDA62
:1002C0000C3208DD02F1140CC2F10C0201FA0CF040
:1002D00021FA02F10CE002F11402D8BFC2F1200CA5
:1002E00001FA02F120FA0CFCDCBF41EA0C0190405B
:1002F000E41AA2BF01EB0451294330BD6FEA0404A4
:100300001F3C1CDA0C340EDC04F11404C4F120028E
:1003100020FA04F001FA02F340EA030021FA04F3A0
:1003200045EA030130BDC4F10C04C4F1200220FAF7
:1003300002F001FA04F340EA0300294630BD21FA35
:1003400004F0294630BD94F0000F83F4801306BFFB
:1003500081F480110134013D4EE77FEA645C18BFEF
:100360007FEA655C29D094EA050F08BF90EA020F86
:1003700005D054EA000C04BF1946104630BD91EA7E
:10038000030F1EBF0021002030BD5FEA545C05D181
:100390004000494128BF41F0004130BD14F58004C0
:1003A0003CBF01F5801130BD01F0004545F0FE4134
:1003B00041F470014FF0000030BD7FEA645C1ABF69
:1003C000194610467FEA655C1CBF0B46024650EAA0
:1003D000013406BF52EA033591EA030F41F40021CC
:1003E00030BD00BF90F0000F04BF0021704730B552
:1003F0004FF4806404F132044FF000054FF0000127
:1004000050E700BF90F0000F04BF0021704730B5E7
:100410004FF4806404F1320410F0004548BF4042BC
:100420004FF000013EE700BF42004FEAE2014FEA11
:1004300031014FEA02701FBF12F07F4393F07F4FEC
:1004400081F06051704732F07F4208BF704793F0EF
:100450007F4F04BF41F40021704730B54FF4607402
:1004600001F0004521F000411CE700BF50EA010205
:1004700008BF704730B54FF000050AE050EA0102AE
:1004800008BF704730B511F0004502D5404261EB1E
:1004900041014FF4806404F132045FEA915C3FF45F
:1004A000D8AE4FF003025FEADC0C18BF03325FEAFC
:1004B000DC0C18BF033202EBDC02C2F1200300FAAD
:1004C00003FC20FA02F001FA03FE40EA0E0021FAD2
:1004D00002F11444BDE600BF70B54FF0FF0C4CF4C0
:1004E000E06C1CEA11541DBF1CEA135594EA0C0F72
:1004F00095EA0C0F00F0DEF82C4481EA030621EAAD
:100500004C5123EA4C5350EA013518BF52EA0335E7
:1005100041F4801143F4801338D0A0FB02CE4FF099
:100520000005E1FB02E506F00042E0FB03E54FF0C9
:100530000006E1FB03569CF0000F18BF4EF0010EC1
:10054000A4F1FF04B6F5007F64F5407404D25FEABD
:100550004E0E6D4146EB060642EAC62141EA555170
:100560004FEAC52040EA5E504FEACE2EB4F1FD0CB2
:1005700088BFBCF5E06F1ED8BEF1004F08BF5FEA30
:10058000500E50F1000041EB045170BD06F00046E2
:1005900046EA010140EA020081EA0301B4EB5C048F
:1005A000C2BFD4EB0C0541EA045170BD41F4801187
:1005B0004FF0000E013C00F3AB8014F1360FDEBFAC
:1005C000002001F0004170BDC4F10004203C35DA88
:1005D0000C341BDC04F11404C4F1200500FA05F30B
:1005E00020FA04F001FA05F240EA020001F00042AC
:1005F00021F0004110EBD37021FA04F642EB060122
:100600005EEA430E08BF20EAD37070BDC4F10C044B
:10061000C4F1200500FA04F320FA05F001FA04F20F
:1006200040EA020001F0004110EBD37041F10001FB
:100630005EEA430E08BF20EAD37070BDC4F1200506
:1006400000FA05F24EEA020E20FA04F301FA05F26E
:1006500043EA020321FA04F001F0004121FA04F216
:1006600020EA020000EBD3705EEA430E08BF20EAE6
:10067000D37070BD94F0000F0FD101F00046400020
:1006800041EB010111F4801F08BF013CF7D041EAA2
:10069000060195F0000F18BF704703F000465200A6
:1006A00043EB030313F4801F08BF013DF7D043EA77
:1006B0000603704794EA0C0F0CEA135518BF95EA2D
:1006C0000C0F0CD050EA410618BF52EA4306D1D1B4
:1006D00081EA030101F000414FF0000070BD50EAD3
:1006E000410606BF1046194652EA430619D094EA5D
:1006F0000C0F02D150EA013613D195EA0C0F05D147
:1007000052EA03361CBF104619460AD181EA03019A
:1007100001F0004141F0FE4141F470014FF0000052
:1007200070BD41F0FE4141F4780170BD70B54FF0ED
:10073000FF0C4CF4E06C1CEA11541DBF1CEA13556D
:1007400094EA0C0F95EA0C0F00F0A7F8A4EB05044F
:1007500081EA030E52EA03354FEA013100F0888046
:100760004FEA03334FF0805545EA131343EA12630F
:100770004FEA022245EA111545EA10654FEA0026C4
:100780000EF000419D4208BF964244F1FD0404F57D
:10079000407402D25B084FEA3202B61A65EB0305D9
:1007A0005B084FEA32024FF480104FF4002CB6EB96
:1007B000020E75EB030E22BFB61A754640EA0C0016
:1007C0005B084FEA3202B6EB020E75EB030E22BF56
:1007D000B61A754640EA5C005B084FEA3202B6EB97
:1007E000020E75EB030E22BFB61A754640EA9C0056
:1007F0005B084FEA3202B6EB020E75EB030E22BF26
:10080000B61A754640EADC0055EA060E18D04FEAE3
:10081000051545EA16754FEA06164FEAC30343EA83
:1008200052734FEAC2025FEA1C1CC0D111F4801F50
:100830000BD141EA00014FF000004FF0004CB6E749
:1008400011F4801F04BF01430020B4F1FD0C88BFE8
:10085000BCF5E06F3FF6AFAEB5EB030C04BFB6EBF3
:10086000020C5FEA500C50F1000041EB045170BDE6
:100870000EF0004E4EEA113114EB5C04C2BFD4EB13
:100880000C0541EA045170BD41F480114FF0000E97
:10089000013C90E645EA060E8DE60CEA135594EA13
:1008A0000C0F08BF95EA0C0F3FF43BAF94EA0C0F16
:1008B0000AD150EA01347FF434AF95EA0C0F7FF48B
:1008C00025AF104619462CE795EA0C0F06D152EADF
:1008D00003353FF4FDAE1046194622E750EA4106C3
:1008E00018BF52EA43067FF4C5AE50EA41047FF4D4
:1008F0000DAF52EA43057FF4EBAE12E74FF0FF3C39
:1009000006E000BF4FF0010C02E000BF4FF0010C09
:100910004DF804CD4FEA410C7FEA6C5C4FEA430C82
:1009200018BF7FEA6C5C1BD001B050EA410C0CBFD1
:1009300052EA430C91EA030F02BF90EA020F002033
:10094000704710F1000F91EA030F58BF994208BF9A
:1009500090422CBFD8176FEAE37040F00100704757
:100960004FEA410C7FEA6C5C02D150EA013C07D1AE
:100970004FEA430C7FEA6C5CD6D152EA033CD3D0F9
:100980005DF8040B704700BF8446104662468C46F3
:100990001946634600E000BF01B5FFF7B7FF002826
:1009A00048BF10F1000F01BD4DF808EDFFF7F4FF4F
:1009B0000CBF012000205DF808FB00BF4DF808EDDA
:1009C000FFF7EAFF34BF012000205DF808FB00BFFD
:1009D0004DF808EDFFF7E0FF94BF012000205DF81F
:1009E00008FB00BF4DF808EDFFF7CEFF94BF0120D4
:1009F00000205DF808FB00BF4DF808EDFFF7C4FFCD
:100A000034BF012000205DF808FB00BF4FEA410C15
:100A10007FEA6C5C02D150EA013C0AD14FEA430CF8
:100A20007FEA6C5C02D152EA033C02D14FF0000035
:100A300070474FF0010070474FEA4102B2F1E043C6
:100A400024BFB3F5001CDCF1FE5C0DD901F0004CB5
:100A50004FEAC0024CEA5070B2F1004F40EB830005
:100A600008BF20F00100704711F0804F21D113F131
:100A70003872BCBF01F00040704741F480114FEA6A
:100A80005252C2F11802C2F1200C10FA0CF320FAF3
:100A900002F018BF40F001004FEAC1234FEAD32310
:100AA00003FA0CFC40EA0C0023FA02F34FEA43037A
:100AB000CCE77FEA625307D150EA01331EBF4FF003
:100AC000FE4040F44000704701F0004040F0FE401E
:100AD00040F40000704700BF80F0004002E000BF1B
:100AE00081F0004142001FBF5FEA410392EA030F19
:100AF0007FEA226C7FEA236C6AD04FEA1262D2EB63
:100B00001363C1BFD218414048404140B8BF5B4267
:100B1000192B88BF704710F0004F40F4000020F000
:100B20007F4018BF404211F0004F41F4000121F016
:100B30007F4118BF494292EA030F3FD0A2F1010260
:100B400041FA03FC10EB0C00C3F1200301FA03F19E
:100B500000F0004302D5494260EB4000B0F5000FC1
:100B600013D3B0F1807F06D340084FEA310102F180
:100B70000102FE2A51D2B1F1004F40EBC25008BF32
:100B800020F0010040EA03007047490040EB0000FC
:100B900010F4000FA2F10102EDD1B0FA80FCACF12B
:100BA000080CB2EB0C0200FA0CF0AABF00EBC2502A
:100BB00052421843BCBFD0401843704792F0000F18
:100BC00081F4000106BF80F400000132013BB5E76B
:100BD0004FEA41037FEA226C18BF7FEA236C21D0E1
:100BE00092EA030F04D092F0000F08BF0846704746
:100BF00090EA010F1CBF0020704712F07F4F04D114
:100C0000400028BF40F00040704712F100723CBF26
:100C100000F50000704700F0004343F0FE4040F450
:100C2000000070477FEA226216BF08467FEA23630E
:100C30000146420206BF5FEA412390EA010F40F4F9
:100C4000800070474FF0000304E000BF10F0004345
:100C500048BF40425FEA000C08BF704743F096432C
:100C600001464FF000001CE050EA010208BF704747
:100C70004FF000030AE000BF50EA010208BF7047CE
:100C800011F0004302D5404261EB41015FEA010CE3
:100C900002BF84460146002043F0B64308BFA3F1DB
:100CA0008053A3F50003BCFA8CF2083AA3EBC253BD
:100CB00010DB01FA02FC634400FA02FCC2F12002DC
:100CC000BCF1004F20FA02F243EB020008BF20F013
:100CD0000100704702F1200201FA02FCC2F1200279
:100CE00050EA4C0021FA02F243EB020008BF20EA6E
:100CF000DC7070474FF0FF0C1CEAD0521EBF1CEA9C
:100D0000D15392EA0C0F93EA0C0F6FD01A4480EA89
:100D1000010C400218BF5FEA41211ED04FF0006372
:100D200043EA501043EA5111A0FB01310CF000409E
:100D3000B1F5000F3EBF490041EAD3715B0040EAC4
:100D4000010062F17F02FD2A1DD8B3F1004F40EB94
:100D5000C25008BF20F00100704790F0000F0CF067
:100D6000004C08BF49024CEA502040EA51207F3A2B
:100D7000C2BFD2F1FF0340EAC250704740F4000006
:100D80004FF00003013A5DDC12F1190FDCBF00F0F7
:100D900000407047C2F10002410021FA02F1C2F1A5
:100DA000200200FA02FC5FEA310040F1000053EA41
:100DB0004C0308BF20EADC70704792F0000F00F08F
:100DC000004C02BF400010F4000F013AF9D040EA95
:100DD0000C0093F0000F01F0004C02BF490011F429
:100DE000000F013BF9D041EA0C018FE70CEAD15327
:100DF00092EA0C0F18BF93EA0C0F0AD030F0004CA7
:100E000018BF31F0004CD8D180EA010000F000405A
:100E1000704790F0000F17BF90F0004F084691F018
:100E2000000F91F0004F14D092EA0C0F01D1420252
:100E30000FD193EA0C0F03D14B0218BF084608D11B
:100E400080EA010000F0004040F0FE4040F4000065
:100E5000704740F0FE4040F4400070474FF0FF0CF8
:100E60001CEAD0521EBF1CEAD15392EA0C0F93EA3F
:100E70000C0F69D0A2EB030280EA010C49024FEA91
:100E8000402037D04FF0805343EA111143EA10134A
:100E90000CF000408B4238BF5B0042F17D024FF402
:100EA000000C8B4224BF5B1A40EA0C00B3EB510FDD
:100EB00024BFA3EB510340EA5C00B3EB910F24BFC6
:100EC000A3EB910340EA9C00B3EBD10F24BFA3EB4B
:100ED000D10340EADC001B0118BF5FEA1C1CE0D113
:100EE000FD2A3FF650AF8B4240EBC25008BF20F0C6
:100EF000010070470CF0004C4CEA50207F32C2BF1A
:100F0000D2F1FF0340EAC250704740F400004FF0B6
:100F10000003013A37E792F0000F00F0004C02BFE7
:100F2000400010F4000F013AF9D040EA0C0093F0B1
:100F3000000F01F0004C02BF490011F4000F013B0B
:100F4000F9D041EA0C0195E70CEAD15392EA0C0F73
:100F500008D142027FF47DAF93EA0C0F7FF470AFAB
:100F6000084676E793EA0C0F04D14B023FF44CAFEE
:100F700008466EE730F0004C18BF31F0004CCAD183
:100F800030F000427FF45CAF31F000437FF43CAFBF
:100F90005FE700BF4FF0FF3C06E000BF4FF0010CE1
:100FA00002E000BF4FF0010C4DF804CD4FEA4002C3
:100FB0004FEA41037FEA226C18BF7FEA236C11D00D
:100FC00001B052EA530C18BF90EA010F58BFB2EBC0
:100FD000030088BFC81738BF6FEAE17018BF40F040
:100FE000010070477FEA226C02D15FEA402C05D1F4
:100FF0007FEA236CE4D15FEA412CE1D05DF8040B79
:10100000704700BF844608466146FFE70FB5FFF70B
:10101000C9FF002848BF10F1000F0FBD4DF808EDC3
:10102000FFF7F4FF0CBF012000205DF808FB00BFB4
:101030004DF808EDFFF7EAFF34BF012000205DF80E
:1010400008FB00BF4DF808EDFFF7E0FF94BF01205B
:1010500000205DF808FB00BF4DF808EDFFF7D2FF58
:1010600094BF012000205DF808FB00BF4DF808ED9B
:10107000FFF7C8FF34BF012000205DF808FB00BF68
:101080004FEA4002B2F1FE4F0FD34FF09E03B3EB95
:1010900012620DD94FEA002343F0004310F0004FD5
:1010A00023FA02F018BF404270474FF0000070472B
:1010B00012F1610F01D1420205D110F0004008BFCA
:1010C0006FF0004070474FF00000704742000ED2B2
:1010D000B2F1FE4F0BD34FF09E03B3EB126209D473
:1010E0004FEA002343F0004323FA02F070474FF029
:1010F0000000704712F1610F01D1420202D14FF09E
:10110000FF3070474FF00000704700BF80B500AF60
:10111000084B1B68074A43F010031360032000F0DC
:1011200023F9002000F008F807F0FEFA0023184623
:1011300080BD00BF0020024080B582B000AF786063
:10114000124B1A68124B1B7819464FF47A73B3FB93
:10115000F1F3B2FBF3F3184600F03BF90346002B22
:1011600001D001230EE07B680F2B0AD8002279689A
:101170004FF0FF3000F003F9064A7B68136000234C
:1011800000E0012318460837BD4680BD60000020FE
:10119000040000200000002080B400AF054B1B7845
:1011A0001A46054B1B681344034A136000BFBD4633
:1011B00080BC7047040000201C05002080B400AFF4
:1011C000024B1B681846BD4680BC70471C050020BA
:1011D00080B485B000AF78607B6803F00703FB60E4
:1011E0000C4BDB68BB60BA684FF6FF031340BB6073
:1011F000FB681A02BB68134343F0BF6343F4003338
:10120000BB60044ABB68D36000BF1437BD4680BCD6
:10121000704700BF00ED00E080B400AF044BDB6816
:101220001B0A03F007031846BD4680BC704700BF89
:1012300000ED00E080B483B000AF0346FB7197F986
:101240000730002B0BDBFB7903F01F02064997F9EF
:1012500007305B09012000FA02F241F8232000BFA9
:101260000C37BD4680BC704700E100E080B483B01D
:1012700000AF03463960FB7197F90730002B0ADB9A
:101280003B68DAB20C4997F907301201D2B20B442D
:1012900083F800230AE03B68DAB20849FB7903F0DF
:1012A0000F03043B1201D2B20B441A7600BF0C3775
:1012B000BD4680BC704700BF00E100E000ED00E0EB
:1012C00080B489B000AFF860B9607A60FB6803F061
:1012D0000703FB61FB69C3F10703042B28BF042349
:1012E000BB61FB690433062B02D9FB69033B00E0B9
:1012F00000237B614FF0FF32BB6902FA03F3DA434C
:10130000BB681A407B699A404FF0FF317B6901FA54
:1013100003F3D9437B680B40134318462437BD467B
:1013200080BC704780B582B000AF78607B68013BBD
:10133000B3F1807F01D301230FE00A4A7B68013BB0
:1013400053600F214FF0FF30FFF790FF054B002255
:101350009A60044B07221A60002318460837BD46DE
:1013600080BD00BF10E000E080B582B000AF7860C3
:101370007868FFF72DFF00BF0837BD4680BD80B5F8
:1013800086B000AF0346B9607A60FB7300237B61CF
:10139000FFF742FF78617A68B9687869FFF790FFD4
:1013A000024697F90F3011461846FFF75FFF00BF5E
:1013B0001837BD4680BD80B582B000AF0346FB71D3
:1013C00097F907301846FFF735FF00BF0837BD46CD
:1013D00080BD80B582B000AF78607868FFF7A2FF6B
:1013E000034618460837BD4680BD000080B485B06E
:1013F00000AF78600023FB607B68002B01D10123E4
:1014000043E07B681B681A46224B1344224AA2FB26
:1014100003231B099A007B681A647B681F4ADA63FE
:101420007B68022283F821207B681B681B68FB60B5
:10143000FB6823F47F5323F03003FB607B685A681A
:101440007B689B681A437B68DB681A437B681B696F
:101450001A437B685B691A437B689B691A437B6804
:10146000DB691343FA681343FB607B681B68FA6807
:101470001A607B6800229A637B68012283F821202E
:101480007B68002283F82020002318461437BD46CD
:1014900080BC7047F8FFFDBFCDCCCCCC0000024033
:1014A00080B586B000AFF860B9607A603B60002319
:1014B000FB75FB6893F82030012B01D102234AE031
:1014C000FB68012283F82020FB6893F82130012B70
:1014D0003AD1FB68022283F82120FB6800229A633C
:1014E000FB681B681A68FB681B6822F001021A601F
:1014F0003B687A68B968F86800F0AEF9FB68DB6AA7
:10150000002B08D0FB681B681A68FB681B6842F058
:101510000E021A600FE0FB681B681A68FB681B6804
:1015200022F004021A60FB681B681A68FB681B68DB
:1015300042F00A021A60FB681B681A68FB681B68A5
:1015400042F001021A6005E0FB68002283F82020C7
:101550000223FB75FB7D18461837BD4680BD000091
:1015600080B584B000AF78600023FB737B6893F88C
:101570002130022B05D07B6804229A630123FB7380
:1015800051E07B681B681A687B681B6822F00E02BA
:101590001A607B681B681A687B681B6822F001026E
:1015A0001A607B681B68224A934229D07B681B68BB
:1015B000204A934222D07B681B681F4A93421AD06C
:1015C0007B681B681D4A934212D07B681B681C4ACB
:1015D00093420AD07B681B681A4A934202D14FF4A7
:1015E00080130EE04FF080730BE04FF4803308E07F
:1015F0004FF4805305E04FF4807302E0102300E0C5
:101600000123114A53607B68012283F821207B6803
:10161000002283F820207B685B6B002B03D07B6863
:101620005B6B78689847FB7B18461037BD4680BDDA
:10163000080002401C00024030000240440002400A
:10164000580002406C0002400000024080B584B0A7
:1016500000AF78607B68DB6B1B68FB607B681B6896
:101660001B68BB607B681B6C04229A40FB681340BC
:10167000002B4FD0BB6803F00403002B4AD07B68DB
:101680001B681B6803F02003002B07D17B681B68D5
:101690001A687B681B6822F004021A607B681B686A
:1016A000664A934229D07B681B68654A934222D0E0
:1016B0007B681B68634A93421AD07B681B68624A46
:1016C000934212D07B681B68604A93420AD07B68C1
:1016D0001B685F4A934202D14FF480030EE04FF043
:1016E00080630BE04FF4802308E04FF4804305E073
:1016F0004FF4806302E0402300E00423554A536026
:101700007B68DB6A002B00F094807B68DB6A78687A
:1017100098478EE07B681B6C02229A40FB6813405E
:10172000002B56D0BB6803F00203002B51D07B681E
:101730001B681B6803F02003002B0BD17B681B6820
:101740001A687B681B6822F00A021A607B68012213
:1017500083F821207B681B68384A934229D07B6834
:101760001B68374A934222D07B681B68354A9342F4
:101770001AD07B681B68344A934212D07B681B687E
:10178000324A93420AD07B681B68314A934202D1A5
:101790004FF400130EE04FF000730BE04FF40033F2
:1017A00008E04FF4005305E04FF4007302E02023FB
:1017B00000E00223274A53607B68002283F8202040
:1017C0007B689B6A002B34D07B689B6A786898475B
:1017D0002FE07B681B6C08229A40FB681340002BAB
:1017E00028D0BB6803F00803002B23D07B681B685C
:1017F0001A687B681B6822F00E021A607B681A6CFC
:101800007B68DB6B012101FA02F25A607B680122DE
:101810009A637B68012283F821207B68002283F889
:1018200020207B681B6B002B04D07B681B6B7868C7
:10183000984700BF00BF1037BD4680BD080002407A
:101840001C000240300002404400024058000240A8
:101850006C0002400000024080B485B000AFF86028
:10186000B9607A603B60FB681A6CFB68DB6B012136
:1018700001FA02F25A60FB681B683A685A60FB681A
:101880005B68102B08D1FB681B687A689A60FB685C
:101890001B68BA68DA6007E0FB681B68BA689A6080
:1018A000FB681B687A68DA6000BF1437BD4680BCED
:1018B0007047000080B48BB000AF786039600023BF
:1018C0007B6200233B6227E101227B6A02FA03F379
:1018D000FB613B681B68FA691340BB61BA69FB692D
:1018E0009A4240F016813B685B68122B34D0122B71
:1018F0000DD8022B2BD0022B04D8002B31D0012B7A
:101900001CD048E0032B43D0112B1BD043E0894A65
:10191000934226D0874A934206D8874A934220D0E2
:10192000864A93421DD036E0854A934219D0854AB3
:10193000934216D0844A934213D02CE03B68DB6874
:101940003B6228E03B68DB6804333B6223E03B6892
:10195000DB6808333B621EE03B68DB680C333B62AC
:1019600019E03B689B68002B02D104233B6212E024
:101970003B689B68012B05D108233B627B68FA69B1
:101980001A6108E008233B627B68FA695A6102E049
:1019900000233B6200BFBB69FF2B01D87B6801E0DD
:1019A0007B6804337B61BB69FF2B02D87B6A9B0099
:1019B00002E07B6A083B9B003B617B691A680F2150
:1019C0003B6901FA03F3DB431A40396A3B6901FAC8
:1019D00003F31A437B691A603B685B6803F080532A
:1019E000002B00F09680594B9B69584A43F0010345
:1019F0009361564B9B6903F00103BB60BB68544A7B
:101A00007B6A9B08023352F82330FB607B6A03F049
:101A100003039B000F2202FA03F3DB43FA6813402F
:101A2000FB607B684B4A934213D07B684A4A9342DF
:101A30000DD07B68494A934207D07B68484A93425D
:101A400001D1032306E0042304E0022302E0012382
:101A500000E000237A6A02F0030292009340FA68E1
:101A60001343FB603A497B6A9B080233FA6841F8EA
:101A700023203B685B6803F48033002B06D0394B8E
:101A80001A683849BB6913430B6006E0354B1A6886
:101A9000BB69DB43334913400B603B685B6803F46D
:101AA0000033002B06D02F4B5A682E49BB691343D5
:101AB0004B6006E02B4B5A68BB69DB432949134056
:101AC0004B603B685B6803F48013002B06D0254B0A
:101AD0009A682449BB6913438B6006E0214B9A68DE
:101AE000BB69DB431F4913408B603B685B6803F4B1
:101AF0000013002B06D01B4BDA681A49BB6913434D
:101B0000CB6006E0174BDA68BB69DB43154913402D
:101B1000CB607B6A01337B623B681A687B6A22FA7E
:101B200003F3002B7FF4D0AE00BF2C37BD4680BC42
:101B3000704700BF000021100000111000001210BB
:101B4000000031100000321000002210001002408E
:101B50000000014000080140000C0140001001405D
:101B6000001401400004014080B483B000AF7860ED
:101B70000B467B8013467B707B78002B03D07A88E2
:101B80007B681A6103E07B881A047B681A6100BFD6
:101B90000C37BD4680BC704780B485B000AF78601C
:101BA0000B467B807B68DB68FB607A88FB681340B0
:101BB0001A04FB68D9437B880B401A437B681A617F
:101BC00000BF1437BD4680BC7047000080B584B0AC
:101BD00000AF78607B68002B01D101231FE17B6897
:101BE00093F83D30DBB2002B06D17B68002283F8EE
:101BF0003C20786806F0CAFD7B68242283F83D20EB
:101C00007B681B681A687B681B6822F001021A60F7
:101C10007B681B681A687B681B6842F400421A6084
:101C20007B681B681A687B681B6822F400421A6094
:101C300001F090FBF8607B685B687B4A934207D8B1
:101C4000FB687A4A934294BF01230023DBB206E08B
:101C5000FB68774A934294BF01230023DBB2002B39
:101C600001D00123DBE0FB68724AA2FB03239B0C3B
:101C7000BB607B681B685B6823F03F017B681B6867
:101C8000BA680A435A607B681B681B6A23F03F01ED
:101C90007B685B68644A934202D8BB68013309E001
:101CA000BB684FF4967202FB03F3634AA2FB032363
:101CB0009B0901337A6812680B4313627B681B68C7
:101CC000DB6923F44F4222F0FF027B685B685649D0
:101CD0008B420DD8FB68591E7B685B685B00B1FBCB
:101CE000F3F30133C3F30B03042B38BF04234FE09A
:101CF0007B689B68002B11D1FB68581E7B68596874
:101D00000B465B000B44B0FBF3F30133C3F30B034F
:101D1000002B0CBF01230023DBB212E0FB68581E2E
:101D20007B6859680B469B000B4499000B44B0FB41
:101D3000F3F30133C3F30B03002B0CBF0123002388
:101D4000DBB2002B01D0012322E07B689B68002BD3
:101D50000ED1FB68581E7B6859680B465B000B442C
:101D6000B0FBF3F30133C3F30B0343F400430FE081
:101D7000FB68581E7B6859680B469B000B44990012
:101D80000B44B0FBF3F30133C3F30B0343F44043C1
:101D9000796809681343CB617B681B681B6823F073
:101DA000C0017B68DA697B681B6A1A437B681B6821
:101DB0000A431A607B681B689B6823F4034323F083
:101DC000FF037A6811697A68D26811437A681268E9
:101DD0000B4393607B681B68DB6823F0FF017B6823
:101DE0005A697B689B691A437B681B680A43DA60FF
:101DF0007B681B681A687B681B6842F001021A60E6
:101E00007B6800221A647B68202283F83D207B686F
:101E100000221A637B68002283F83E2000231846C4
:101E20001037BD4680BD00BFA08601007F841E0024
:101E3000FF083D0083DE1B43D34D621080B588B0A0
:101E400002AFF860084611461A4603467B810B46EE
:101E50003B811346FB80FFF7B1F97861FB6893F88B
:101E60003D30DBB2202B40F0D9807B6900931923F1
:101E700001226D49F86800F0BBFC0346002B01D03D
:101E80000223CCE0FB6893F83C30012B01D1022304
:101E9000C5E0FB68012283F83C20FB681B681B68D7
:101EA00003F00103012B07D0FB681B681A68FB686D
:101EB0001B6842F001021A60FB681B681A68FB6825
:101EC0001B6822F400621A60FB68212283F83D201F
:101ED000FB68402283F83E20FB6800221A64FB68FE
:101EE0003A6A5A62FB68BA8C5A85FB685B8D9AB273
:101EF000FB681A85FB684D4ADA62F8883A89798965
:101F00007B690193BB6A00930346F86800F0F2FA1C
:101F10000346002B52D0012381E07A69B96AF86840
:101F200000F03CFD0346002B0DD0FB681B6C042B1E
:101F300007D1FB681B681A68FB681B6842F40072D3
:101F40001A6001236BE0FB685B6A1A78FB681B6808
:101F50001A61FB685B6A5A1CFB685A62FB681B8D3E
:101F6000013B9AB2FB681A85FB685B8D9BB2013B13
:101F70009AB2FB685A85FB681B685B6903F004032F
:101F8000042B1BD1FB681B8D002B17D0FB685B6AF1
:101F90001A78FB681B681A61FB685B6A5A1CFB684D
:101FA0005A62FB681B8D013B9AB2FB681A85FB687D
:101FB0005B8D9BB2013B9AB2FB685A85FB681B8D17
:101FC000002BAAD17A69B96AF86800F028FD0346A7
:101FD000002B0DD0FB681B6C042B07D1FB681B6822
:101FE0001A68FB681B6842F400721A60012316E04D
:101FF000FB681B681A68FB681B6842F400721A6071
:10200000FB68202283F83D20FB68002283F83E20F5
:10201000FB68002283F83C20002300E002231846DE
:102020001837BD4680BD00BF020010000000FFFF52
:1020300080B58CB002AFF860084611461A460346D8
:102040007B810B463B811346FB8000233B62FFF7FD
:10205000B5F87862FB6893F83D30DBB2202B40F096
:102060003D827B6A0093192301228149F86800F0C0
:10207000BFFB0346002B01D0022330E2FB6893F83C
:102080003C30012B01D1022329E2FB68012283F8B5
:102090003C20FB681B681B6803F00103012B07D081
:1020A000FB681B681A68FB681B6842F001021A6033
:1020B000FB681B681A68FB681B6822F400621A60E0
:1020C000FB68222283F83D20FB68402283F83E20F3
:1020D000FB6800221A64FB683A6B5A62FB68BA8E8E
:1020E0005A85FB685B8D9AB2FB681A85FB68614A6A
:1020F000DA62F8883A8979897B6A0193BB6B00932D
:102100000346F86800F08CFA0346002B01D0012347
:10211000E5E1FB681B8D002B13D10023FB61FB68FD
:102120001B685B69FB61FB681B689B69FB61FB6962
:10213000FB681B681A68FB681B6842F400721A602F
:10214000B9E1FB681B8D012B1DD1FB681B681A6868
:10215000FB681B6822F480621A6072B60023BB61C0
:10216000FB681B685B69BB61FB681B689B69BB61A3
:10217000BB69FB681B681A68FB681B6842F4007245
:102180001A6062B697E1FB681B8D022B1DD1FB68BC
:102190001B681A68FB681B6842F400621A6072B61A
:1021A00000237B61FB681B685B697B61FB681B68C4
:1021B0009B697B617B69FB681B681A68FB681B680D
:1021C00022F480621A6062B675E1FB681B681A68C7
:1021D000FB681B6842F480621A6000233B61FB6865
:1021E0001B685B693B61FB681B689B693B613B69E2
:1021F00061E1FB681B8D032B00F21A81FB681B8DCC
:10220000012B23D17A6AB96BF86800F049FC0346C8
:10221000002B01D0012362E1FB681B681A69FB688F
:102220005B6AD2B21A70FB685B6A5A1CFB685A621E
:10223000FB681B8D013B9AB2FB681A85FB685B8DBE
:102240009BB2013B9AB2FB685A8534E1FB681B8D57
:10225000022B50D17B6A0093BB6B00220649F868C1
:1022600000F0C6FA0346002B08D0012337E100BF77
:10227000020010000000FFFF0400010072B6FB68BE
:102280001B681A68FB681B6842F400721A60FB68DE
:102290001B681A69FB685B6AD2B21A70FB685B6ADA
:1022A0005A1CFB685A62FB681B8D013B9AB2FB68A3
:1022B0001A85FB685B8D9BB2013B9AB2FB685A851D
:1022C00062B6FB681B681A69FB685B6AD2B21A7057
:1022D000FB685B6A5A1CFB685A62FB681B8D013BFA
:1022E0009AB2FB681A85FB685B8D9BB2013B9AB280
:1022F000FB685A85DFE07B6A0093BB6B00227A495A
:10230000F86800F075FA0346002B01D00123E6E0DF
:10231000FB681B681A68FB681B6822F480621A60FD
:1023200072B6FB681B681A69FB685B6AD2B21A70E6
:10233000FB685B6A5A1CFB685A62FB681B8D013B99
:102340009AB2FB681A85FB685B8D9BB2013B9AB21F
:10235000FB685A85654B1B68DB08654AA2FB0323B3
:102360001A0A13469B001344DA00D31A3B623B6AF5
:10237000013B3B623B6A002B17D1FB6800221A63CA
:10238000FB68202283F83D20FB68002283F83E2072
:10239000FB681B6C43F02002FB681A6462B6FB68A2
:1023A000002283F83C20012399E0FB681B685B69ED
:1023B00003F00403042BDAD1FB681B681A68FB687E
:1023C0001B6842F400721A60FB681B681A69FB689C
:1023D0005B6AD2B21A70FB685B6A5A1CFB685A626D
:1023E000FB681B8D013B9AB2FB681A85FB685B8D0D
:1023F0009BB2013B9AB2FB685A8562B6FB681B68C8
:102400001A69FB685B6AD2B21A70FB685B6A5A1C75
:10241000FB685A62FB681B8D013B9AB2FB681A8508
:10242000FB685B8D9BB2013B9AB2FB685A8542E028
:102430007A6AB96BF86800F033FB0346002B01D0D1
:1024400001234CE0FB681B681A69FB685B6AD2B227
:102450001A70FB685B6A5A1CFB685A62FB681B8D2A
:10246000013B9AB2FB681A85FB685B8D9BB2013B0E
:102470009AB2FB685A85FB681B685B6903F004032A
:10248000042B18D1FB681B681A69FB685B6AD2B21F
:102490001A70FB685B6A5A1CFB685A62FB681B8DEA
:1024A000013B9AB2FB681A85FB685B8D9BB2013BCE
:1024B0009AB2FB685A85FB681B8D002B7FF499AE9E
:1024C000FB68202283F83D20FB68002283F83E2031
:1024D000FB68002283F83C20002300E0022318461A
:1024E0002837BD4680BD00BF040001006000002009
:1024F00089B5F81480B588B002AFF8600846114677
:102500001A4603467B810B463B811346FB80FB68E2
:102510001B681A68FB681B6842F480721A607B6A49
:1025200000933B6A00224FF00111F86800F060F957
:102530000346002B0DD0FB681B681B6803F48073F7
:10254000B3F5807F03D1FB684FF400721A64032354
:102550005FE07B89DBB21A46FB681B6802F0FE0273
:102560001A617B6A3A6A2D49F86800F098F90346C7
:10257000002B01D001234CE000237B61FB681B682A
:102580005B697B61FB681B689B697B617B697A6A1D
:10259000396AF86800F002FA0346002B0DD0FB6898
:1025A0001B6C042B07D1FB681B681A68FB681B684F
:1025B00042F400721A6001232BE0FB88012B05D145
:1025C0003B89DAB2FB681B681A6121E03B891B0A70
:1025D0009BB2DAB2FB681B681A617A6A396AF868DA
:1025E00000F0DCF90346002B0DD0FB681B6C042BBC
:1025F00007D1FB681B681A68FB681B6842F400720D
:102600001A60012305E03B89DAB2FB681B681A6196
:10261000002318461837BD4680BD00BF02000100E8
:1026200080B588B002AFF860084611461A460346E6
:102630007B810B463B811346FB80FB681B681A6855
:10264000FB681B6842F480621A60FB681B681A68AA
:10265000FB681B6842F480721A607B6A00933B6AD5
:1026600000224FF00111F86800F0C2F80346002B79
:102670000DD0FB681B681B6803F48073B3F5807F83
:1026800003D1FB684FF400721A640323AAE07B892C
:10269000DBB21A46FB681B6802F0FE021A617B6A15
:1026A0003A6A5249F86800F0FAF80346002B01D064
:1026B000012397E000237B61FB681B685B697B61FA
:1026C000FB681B689B697B617B697A6A396AF86879
:1026D00000F064F90346002B0DD0FB681B6C042B43
:1026E00007D1FB681B681A68FB681B6842F400721C
:1026F0001A60012376E0FB88012B05D13B89DAB211
:10270000FB681B681A6121E03B891B0A9BB2DAB2A5
:10271000FB681B681A617A6A396AF86800F03EF94A
:102720000346002B0DD0FB681B6C042B07D1FB6804
:102730001B681A68FB681B6842F400721A60012368
:1027400050E03B89DAB2FB681B681A617A6A396A21
:10275000F86800F023F90346002B0DD0FB681B6CD2
:10276000042B07D1FB681B681A68FB681B6842F4DE
:1027700000721A60012335E0FB681B681A68FB6869
:102780001B6842F480721A607B6A00933B6A0022E5
:102790004FF00111F86800F02BF80346002B0DD024
:1027A000FB681B681B6803F48073B3F5807F03D15B
:1027B000FB684FF400721A64032313E07B89DBB2D9
:1027C00043F00103DAB2FB681B681A617B6A3A6A5C
:1027D0000649F86800F063F80346002B01D0012396
:1027E00000E0002318461837BD4680BD02000100F6
:1027F00080B584B000AFF860B9603B601346FB71F0
:1028000025E03B68B3F1FF3F21D0FEF7D7FC02463D
:10281000BB69D31A3A689A4202D33B68002B16D19F
:10282000FB6800221A63FB68202283F83D20FB68C6
:10283000002283F83E20FB681B6C43F02002FB68FB
:102840001A64FB68002283F83C20012323E0BB6864
:102850001B0CDBB2012B0DD1FB681B685B69DA43F3
:10286000BB6813409BB2002B0CBF01230023DBB2DB
:102870001A460CE0FB681B689B69DA43BB6813408F
:102880009BB2002B0CBF01230023DBB21A46FB795D
:102890009A42B6D0002318461037BD4680BD80B599
:1028A00084B000AFF860B9607A603B6051E0FB68CB
:1028B0001B685B6903F48063B3F5806F23D1FB6809
:1028C0001B681A68FB681B6842F400721A60FB6898
:1028D0001B686FF480625A61FB6800221A63FB6810
:1028E000202283F83D20FB68002283F83E20FB680D
:1028F0001B6C43F00402FB681A64FB68002283F837
:102900003C20012346E07B68B3F1FF3F21D0FEF776
:1029100055FC02463B68D31A7A689A4202D37B6818
:10292000002B16D1FB6800221A63FB68202283F873
:102930003D20FB68002283F83E20FB681B6C43F0BF
:102940002002FB681A64FB68002283F83C20012304
:1029500020E0BB681B0CDBB2012B0CD1FB681B68B1
:102960005B69DA43BB6813409BB2002B14BF0123A1
:102970000023DBB20BE0FB681B689B69DA43BB6892
:1029800013409BB2002B14BF01230023DBB2002BAA
:102990008DD1002318461037BD4680BD80B584B068
:1029A00000AFF860B9607A602DE0F86800F0CEF80A
:1029B0000346002B01D001232DE0BB68B3F1FF3F9C
:1029C00021D0FEF7FBFB02467B68D31ABA689A4215
:1029D00002D3BB68002B16D1FB6800221A63FB6888
:1029E000202283F83D20FB68002283F83E20FB680C
:1029F0001B6C43F02002FB681A64FB68002283F81A
:102A00003C20012307E0FB681B685B6903F080033F
:102A1000802BCAD1002318461037BD4680BD80B533
:102A200084B000AFF860B9607A602DE0F86800F01B
:102A30008DF80346002B01D001232DE0BB68B3F1D4
:102A4000FF3F21D0FEF7BAFB02467B68D31ABA6873
:102A50009A4202D3BB68002B16D1FB6800221A638E
:102A6000FB68202283F83D20FB68002283F83E208B
:102A7000FB681B6C43F02002FB681A64FB680022B1
:102A800083F83C20012307E0FB681B685B6903F0C7
:102A90000403042BCAD1002318461037BD4680BD5D
:102AA00080B584B000AFF860B9607A6042E0FB683E
:102AB0001B685B6903F01003102B19D1FB681B68BE
:102AC0006FF010025A61FB6800221A63FB68202233
:102AD00083F83D20FB68002283F83E20FB681A6CD7
:102AE000FB681A64FB68002283F83C20012329E07C
:102AF000FEF764FB02467B68D31ABA689A4202D397
:102B0000BB68002B16D1FB6800221A63FB682022E9
:102B100083F83D20FB68002283F83E20FB681B6C95
:102B200043F02002FB681A64FB68002283F83C2013
:102B3000012307E0FB681B685B6903F04003402B3F
:102B4000B5D1002318461037BD4680BD80B483B090
:102B500000AF78607B681B685B6903F48063B3F542
:102B6000806F1BD17B681B686FF480625A617B6841
:102B700000221A637B68202283F83D207B680022B4
:102B800083F83E207B681B6C43F004027B681A6468
:102B90007B68002283F83C20012300E000231846D4
:102BA0000C37BD4680BC704780B586B000AF7860FA
:102BB0007B68002B01D101236CE27B681B6803F06A
:102BC0000103002B00F08780924B5B6803F00C033D
:102BD000042B0CD08F4B5B6803F00C03082B12D135
:102BE0008C4B5B6803F48033B3F5803F0BD1894B8A
:102BF0001B6803F40033002B6CD07B685B68002BF0
:102C000068D1012346E27B685B68B3F5803F06D15B
:102C1000804B1B687F4A43F4803313602EE07B684F
:102C20005B68002B0CD17B4B1B687A4A23F4803302
:102C30001360784B1B68774A23F4802313601DE0F0
:102C40007B685B68B3F5A02F0CD1724B1B68714A8F
:102C500043F4802313606F4B1B686E4A43F4803348
:102C600013600BE06B4B1B686A4A23F480331360DC
:102C7000684B1B68674A23F4802313607B685B689A
:102C8000002B13D0FEF79AFA386108E0FEF796FAA7
:102C900002463B69D31A642B01D90323FAE15D4B49
:102CA0001B6803F40033002BF0D014E0FEF786FA23
:102CB000386108E0FEF782FA02463B69D31A642BBA
:102CC00001D90323E6E1534B1B6803F40033002BC7
:102CD000F0D100E000BF7B681B6803F00203002B0B
:102CE00063D04C4B5B6803F00C03002B0BD0494BBB
:102CF0005B6803F00C03082B1CD1464B5B6803F4A4
:102D00008033002B16D1434B1B6803F00203002BCA
:102D100005D07B681B69012B01D00123BAE13D4B33
:102D20001B6823F0F8027B685B69DB0039491343B9
:102D30000B603AE07B681B69002B20D0364B0122E8
:102D40001A60FEF73BFA386108E0FEF737FA0246F0
:102D50003B69D31A022B01D903239BE12D4B1B683E
:102D600003F00203002BF0D02A4B1B6823F0F8027B
:102D70007B685B69DB00274913430B6015E0264B3A
:102D800000221A60FEF71AFA386108E0FEF716FA18
:102D900002463B69D31A022B01D903237AE11D4B6A
:102DA0001B6803F00203002BF0D17B681B6803F063
:102DB0000803002B3AD07B689B69002B19D0174B76
:102DC00001221A60FEF7FAF9386108E0FEF7F6F919
:102DD00002463B69D31A022B01D903235AE10D4B5A
:102DE0005B6A03F00203002BF0D0012000F0DAFA56
:102DF0001CE00A4B00221A60FEF7E0F938610FE090
:102E0000FEF7DCF902463B69D31A022B08D90323EB
:102E100040E100BF001002400000424280044242F4
:102E20009E4B5B6A03F00203002BE9D17B681B68B1
:102E300003F00403002B00F0A6800023FB75974BE2
:102E4000DB6903F08053002B0DD1944BDB69934A6F
:102E500043F08053D361914BDB6903F08053BB6037
:102E6000BB680123FB758E4B1B6803F48073002B3A
:102E700018D18B4B1B688A4A43F480731360FEF7AA
:102E80009DF9386108E0FEF799F902463B69D31ACB
:102E9000642B01D90323FDE0814B1B6803F480738D
:102EA000002BF0D07B68DB68012B06D17B4B1B6AC3
:102EB0007A4A43F0010313622DE07B68DB68002B44
:102EC0000CD1764B1B6A754A23F001031362734BD6
:102ED0001B6A724A23F0040313621CE07B68DB6800
:102EE000052B0CD16D4B1B6A6C4A43F00403136233
:102EF0006A4B1B6A694A43F0010313620BE0674B9C
:102F00001B6A664A23F001031362644B1B6A634A1F
:102F100023F0040313627B68DB68002B15D0FEF7F7
:102F20004DF938610AE0FEF749F902463B69D31AC8
:102F300041F28832934201D90323ABE0574B1B6A1D
:102F400003F00203002BEED014E0FEF737F93861EE
:102F50000AE0FEF733F902463B69D31A41F28832A0
:102F6000934201D9032395E04C4B1B6A03F0020303
:102F7000002BEED1FB7D012B05D1484BDB69474A85
:102F800023F08053D3617B68DB69002B00F08180E4
:102F9000424B5B6803F00C03082B61D07B68DB6954
:102FA000022B46D13F4B00221A60FEF707F9386129
:102FB00008E0FEF703F902463B69D31A022B01D958
:102FC000032367E0354B1B6803F00073002BF0D13F
:102FD0007B681B6AB3F5803F08D1304B5B6823F4F4
:102FE00000327B689B682D4913434B602B4B5B6819
:102FF00023F474127B68196A7B685B6A0B43274968
:1030000013434B60274B01221A60FEF7D7F8386153
:1030100008E0FEF7D3F802463B69D31A022B01D928
:10302000032337E01D4B1B6803F00073002BF0D027
:103030002FE01C4B00221A60FEF7C0F8386108E050
:10304000FEF7BCF802463B69D31A022B01D90323D1
:1030500020E0124B1B6803F00073002BF0D118E046
:103060007B68DB69012B01D1012313E00B4B5B680B
:10307000FB60FB6803F480327B681B6A9A4206D1CE
:10308000FB6803F470127B685B6A9A4201D00123EB
:1030900000E0002318461837BD4680BD00100240EE
:1030A000007000406000424280B584B000AF78609C
:1030B00039607B68002B01D10123D0E06A4B1B688B
:1030C00003F007033A689A4210D9674B1B6823F054
:1030D000070265493B6813430B60634B1B6803F0B1
:1030E00007033A689A4201D00123B8E07B681B6865
:1030F00003F00203002B20D07B681B6803F004035D
:10310000002B05D0594B5B68584A43F4E063536089
:103110007B681B6803F00803002B05D0534B5B68EA
:10312000524A43F460535360504B5B6823F0F00203
:103130007B689B684D4913434B607B681B6803F0B9
:103140000103002B40D07B685B68012B07D1474B04
:103150001B6803F40033002B15D101237FE07B684B
:103160005B68022B07D1414B1B6803F00073002BF7
:1031700009D1012373E03D4B1B6803F00203002BD0
:1031800001D101236BE0394B5B6823F003027B68BC
:103190005B68364913434B60FEF710F8F8600AE0AD
:1031A000FEF70CF80246FB68D31A41F288329342CC
:1031B00001D9032353E02D4B5B6803F00C027B68BD
:1031C0005B689B009A42EBD1274B1B6803F0070317
:1031D0003A689A4210D2244B1B6823F00702224916
:1031E0003B6813430B60204B1B6803F007033A68EE
:1031F0009A4201D0012332E07B681B6803F004038C
:10320000002B08D0194B5B6823F4E0627B68DB6815
:10321000164913434B607B681B6803F00803002BBF
:1032200009D0124B5B6823F460527B681B69DB009A
:103230000E4913434B6000F021F801460B4B5B68CD
:103240001B0903F00F030A4AD35C21FA03F3094A6E
:103250001360094B1B681846FDF76EFF00231846E4
:103260001037BD4680BD00BF002002400010024064
:103270007CA10008600000200000002090B48AB00B
:1032800000AF2A4B3C1D0FCB84E80F00284B1B8856
:103290003B800023FB610023BB6100237B62002392
:1032A0007B6100233B62234B5B68FB61FB6903F09E
:1032B0000C03042B02D0082B03D02DE01E4B3B62E5
:1032C0002DE0FB699B0C03F00F0307F12802134468
:1032D00013F8243C7B61FB6903F48033002B13D08B
:1032E000144B5B685B0C03F0010307F128021344E5
:1032F00013F8283CBB617B690F4A02FB03F2BB69F0
:10330000B2FBF3F37B6204E07B690C4A02FB03F33C
:103310007B627B6A3B6202E0074B3B6200BF3B6A19
:1033200018462837BD4690BC704700BF509E000825
:10333000609E00080010024000127A0000093D0063
:1033400080B400AF024B1B681846BD4680BC704776
:103350006000002080B500AFFFF7F2FF0146054B8B
:103360005B681B0A03F00703034AD35C21FA03F3EB
:10337000184680BD001002408CA1000880B500AF47
:10338000FFF7DEFF0146054B5B68DB0A03F007032E
:10339000034AD35C21FA03F3184680BD00100240B3
:1033A0008CA1000880B485B000AF78600A4B1B6820
:1033B0000A4AA2FB03235B0A7A6802FB03F3FB6061
:1033C00000BFFB685A1EFA60002BF9D100BF14370A
:1033D000BD4680BC704700BF60000020D34D621026
:1033E00080B582B000AF78607B68002B01D10123EB
:1033F00041E07B6893F83D30DBB2002B06D17B685F
:10340000002283F83C20786805F010FA7B680222DD
:1034100083F83D207B681A687B68043319461046A0
:1034200000F06CFD7B68012283F846207B68012256
:1034300083F83E207B68012283F83F207B680122CD
:1034400083F840207B68012283F841207B680122B9
:1034500083F842207B68012283F843207B680122A5
:1034600083F844207B68012283F845207B68012291
:1034700083F83D20002318460837BD4680BD000074
:1034800080B485B000AF78607B6893F83D30DBB2E4
:10349000012B01D001233AE07B68022283F83D2012
:1034A0007B681B68DA687B681B6842F00102DA609F
:1034B0007B681B68184A93420ED07B681B68B3F187
:1034C000804F09D07B681B68144A934204D07B6804
:1034D0001B68134A934211D17B681B689B6803F0F9
:1034E0000703FB60FB68062B10D07B681B681A681B
:1034F0007B681B6842F001021A6007E07B681B686A
:103500001A687B681B6842F001021A6000231846A3
:103510001437BD4680BC7047002C014000040040B9
:103520000008004080B582B000AF78607B68002B57
:1035300001D1012341E07B6893F83D30DBB2002BE1
:1035400006D17B68002283F83C20786800F039F8C7
:103550007B68022283F83D207B681A687B6804330D
:103560001946104600F0CAFC7B68012283F8462009
:103570007B68012283F83E207B68012283F83F208C
:103580007B68012283F840207B68012283F8412078
:103590007B68012283F842207B68012283F8432064
:1035A0007B68012283F844207B68012283F8452050
:1035B0007B68012283F83D20002318460837BD466A
:1035C00080BD80B483B000AF786000BF0C37BD46CB
:1035D00080BC704780B584B000AF786039603B68CC
:1035E000002B09D17B6893F83E30DBB2012B14BF6E
:1035F00001230023DBB222E03B68042B09D17B6866
:1036000093F83F30DBB2012B14BF01230023DBB260
:1036100015E03B68082B09D17B6893F84030DBB29A
:10362000012B14BF01230023DBB208E07B6893F871
:103630004130DBB2012B14BF01230023DBB2002B8E
:1036400001D001235EE03B68002B04D17B6802229D
:1036500083F83E2013E03B68042B04D17B680222F0
:1036600083F83F200BE03B68082B04D17B680222E3
:1036700083F8402003E07B68022283F841207B68C6
:103680001B6801223968184600F0B8FE7B681B6889
:103690001E4A934207D17B681B685A6C7B681B6883
:1036A00042F400425A647B681B68184A93420ED069
:1036B0007B681B68B3F1804F09D07B681B68144A94
:1036C000934204D07B681B68124A934211D17B68F5
:1036D0001B689B6803F00703FB60FB68062B10D098
:1036E0007B681B681A687B681B6842F001021A60DD
:1036F00007E07B681B681A687B681B6842F0010260
:103700001A60002318461037BD4680BD002C0140CA
:10371000000400400008004080B586B000AF78602B
:1037200039607B68002B01D1012393E07B6893F81B
:103730003D30DBB2002B06D17B68002283F83C20B1
:10374000786805F0ABF87B68022283F83D207B683F
:103750001B689B687A68126823F4804323F0070390
:1037600093607B681A687B6804331946104600F042
:10377000C5FB7B681B689B687B617B681B689B69DA
:103780003B617B681B681B6AFB603B681B687A694E
:1037900013437B613B6923F4407323F003033B61D4
:1037A0003B689A683B689B691B0213433A69134361
:1037B0003B613B6923F4406323F00C033B613B69AD
:1037C00023F4704323F0F0033B613B68DA683B6805
:1037D000DB691B0213433A6913433B613B681B6976
:1037E0001A013B681B6A1B0313433A6913433B618D
:1037F000FB6823F02203FB603B685A683B685B6907
:103800001B011343FA681343FB607B681B687A69EA
:103810009A607B681B683A699A617B681B68FA68E2
:103820001A627B68012283F846207B68012283F8B4
:103830003E207B68012283F83F207B68012283F8C9
:1038400042207B68012283F843207B68012283F8B1
:103850003D20002318461837BD4680BD80B584B092
:1038600000AF786039607B6893F83E30FB737B680B
:1038700093F83F30BB737B6893F842307B737B686F
:1038800093F843303B733B68002B10D1FB7B012B3B
:1038900002D17B7B012B01D0012388E07B680222CF
:1038A00083F83E207B68022283F8422031E03B68A7
:1038B000042B10D1BB7B012B02D13B7B012B01D010
:1038C000012374E07B68022283F83F207B68022298
:1038D00083F843201DE0FB7B012B08D1BB7B012B30
:1038E00005D17B7B012B02D13B7B012B01D0012336
:1038F0005DE07B68022283F83E207B68022283F829
:103900003F207B68022283F842207B68022283F8F2
:1039100043203B68002B02D0042B10D01FE07B68B3
:103920001B6801220021184600F068FD7B681B68B7
:10393000DA687B681B6842F00202DA602EE07B687E
:103940001B6801220421184600F058FD7B681B68A3
:10395000DA687B681B6842F00402DA601EE07B686C
:103960001B6801220021184600F048FD7B681B6897
:1039700001220421184600F041FD7B681B68DA68CB
:103980007B681B6842F00202DA607B681B68DA68B9
:103990007B681B6842F00402DA6000BF7B681B682A
:1039A0001A687B681B6842F001021A6000231846FF
:1039B0001037BD4680BD80B582B000AF78607B68AF
:1039C0001B681B6903F00203022B22D17B681B6872
:1039D000DB6803F00203022B1BD17B681B686FF0CE
:1039E00002021A617B6801221A777B681B689B6957
:1039F00003F00303002B03D0786800F063FA05E0BE
:103A0000786800F056FA786800F065FA7B68002262
:103A10001A777B681B681B6903F00403042B22D10F
:103A20007B681B68DB6803F00403042B1BD17B68F5
:103A30001B686FF004021A617B6802221A777B68A8
:103A40001B689B6903F44073002B03D0786800F077
:103A500039FA05E0786800F02CFA786800F03BFA53
:103A60007B6800221A777B681B681B6903F00803D8
:103A7000082B22D17B681B68DB6803F00803082B46
:103A80001BD17B681B686FF008021A617B680422F7
:103A90001A777B681B68DB6903F00303002B03D0F4
:103AA000786800F00FFA05E0786800F002FA7868AC
:103AB00000F011FA7B6800221A777B681B681B698B
:103AC00003F01003102B22D17B681B68DB6803F026
:103AD0001003102B1BD17B681B686FF010021A615A
:103AE0007B6808221A777B681B68DB6903F44073E4
:103AF000002B03D0786800F0E5F905E0786800F065
:103B0000D8F9786800F0E7F97B6800221A777B68BB
:103B10001B681B6903F00103012B0ED17B681B6836
:103B2000DB6803F00103012B07D17B681B686FF092
:103B300001021A61786801F0F9FD7B681B681B6956
:103B400003F08003802B0ED17B681B68DB6803F0D9
:103B50008003802B07D17B681B686FF080021A619D
:103B6000786800F0D6FC7B681B681B6903F0400393
:103B7000402B0ED17B681B68DB6803F04003402BB1
:103B800007D17B681B686FF040021A61786800F00B
:103B9000ABF97B681B681B6903F02003202B0ED157
:103BA0007B681B68DB6803F02003202B07D17B6850
:103BB0001B686FF020021A61786800F0A1FC00BF5A
:103BC0000837BD4680BD000080B584B000AFF86006
:103BD000B9607A60FB6893F83C30012B01D1022375
:103BE000ACE0FB68012283F83C207B680C2B00F2E0
:103BF0009F8001A252F823F02D3C0008313D0008BF
:103C0000313D0008313D00086D3C0008313D0008A1
:103C1000313D0008313D0008AF3C0008313D00084F
:103C2000313D0008313D0008EF3C0008FB681B688F
:103C3000B968184600F0C4F9FB681B689A69FB680C
:103C40001B6842F008029A61FB681B689A69FB686E
:103C50001B6822F004029A61FB681B689969BB68C3
:103C60001A69FB681B680A439A6162E0FB681B687B
:103C7000B968184600F00AFAFB681B689A69FB6885
:103C80001B6842F400629A61FB681B689A69FB68D2
:103C90001B6822F480629A61FB681B689969BB68A3
:103CA0001B691A02FB681B680A439A6141E0FB68C2
:103CB0001B68B968184600F053FAFB681B68DA699C
:103CC000FB681B6842F00802DA61FB681B68DA696E
:103CD000FB681B6822F00402DA61FB681B68D96983
:103CE000BB681A69FB681B680A43DA6121E0FB685C
:103CF0001B68B968184600F09DFAFB681B68DA6912
:103D0000FB681B6842F40062DA61FB681B68DA69D1
:103D1000FB681B6822F48062DA61FB681B68D96962
:103D2000BB681B691A02FB681B680A43DA6100E082
:103D300000BFFB68002283F83C20002318461037A0
:103D4000BD4680BD80B584B000AF786039607B68C7
:103D500093F83C30012B01D10223A6E07B680122BD
:103D600083F83C207B68022283F83D207B681B6837
:103D70009B68FB60FB6823F07703FB60FB6823F420
:103D80007F43FB607B681B68FA689A603B681B682E
:103D9000402B67D0402B0BD8102B73D0102B02D8A0
:103DA000002B6FD078E0202B6CD0302B6AD073E0E2
:103DB000702B0DD0702B04D8502B33D0602B41D0FA
:103DC0006AE0B3F5805F66D0B3F5005F17D063E0BB
:103DD0007B6818683B6899683B685A683B68DB6891
:103DE00000F0EDFA7B681B689B68FB60FB6843F0A2
:103DF0007703FB607B681B68FA689A604CE07B681D
:103E000018683B6899683B685A683B68DB6800F053
:103E1000D6FA7B681B689A687B681B6842F480420C
:103E20009A6039E07B6818683B6859683B68DB68D2
:103E30001A4600F04DFA7B681B685021184600F0C6
:103E4000A4FA29E07B6818683B6859683B68DB681E
:103E50001A4600F06BFA7B681B686021184600F078
:103E600094FA19E07B6818683B6859683B68DB681E
:103E70001A4600F02DFA7B681B684021184600F0B6
:103E800084FA09E07B681A683B681B68194610468B
:103E900000F07BFA00E000BF7B68012283F83D2040
:103EA0007B68002283F83C20002318461037BD466B
:103EB00080BD80B483B000AF786000BF0C37BD46D2
:103EC00080BC704780B483B000AF786000BF0C370F
:103ED000BD4680BC704780B483B000AF786000BF3F
:103EE0000C37BD4680BC704780B483B000AF7860AB
:103EF00000BF0C37BD4680BC7047000080B485B061
:103F000000AF786039607B681B68FB607B68294A7A
:103F100093420BD07B68B3F1804F07D07B68264A71
:103F2000934203D07B68254A934208D1FB6823F073
:103F30007003FB603B685B68FA681343FB607B6857
:103F40001C4A93420BD07B68B3F1804F07D07B684B
:103F5000194A934203D07B68184A934208D1FB6800
:103F600023F44073FB603B68DB68FA681343FB6033
:103F7000FB6823F080023B685B691343FB607B684E
:103F8000FA681A603B689A687B68DA623B681A686C
:103F90007B689A627B68074A934203D13B681A693F
:103FA0007B681A637B6801225A6100BF1437BD46E3
:103FB00080BC7047002C0140000400400008004015
:103FC00080B487B000AF786039607B681B6A23F0EB
:103FD00001027B681A627B681B6A7B617B685B6895
:103FE0003B617B689B69FB60FB6823F07003FB60AF
:103FF000FB6823F00303FB603B681B68FA6813430C
:10400000FB607B6923F002037B613B689B687A69F4
:1040100013437B617B681C4A93420CD17B6923F07C
:1040200008037B613B68DB687A6913437B617B69CA
:1040300023F004037B617B68134A934211D13B69EF
:1040400023F480733B613B6923F400733B613B685D
:104050005B693A6913433B613B689B693A69134367
:104060003B617B683A695A607B68FA689A613B6891
:104070005A687B685A637B687A691A6200BF1C378A
:10408000BD4680BC704700BF002C014080B487B0A3
:1040900000AF786039607B681B6A23F010027B6890
:1040A0001A627B681B6A7B617B685B683B617B682B
:1040B0009B69FB60FB6823F4E043FB60FB6823F42F
:1040C0004073FB603B681B681B02FA681343FB608C
:1040D0007B6923F020037B613B689B681B017A6945
:1040E00013437B617B681D4A93420DD17B6923F0AA
:1040F00080037B613B68DB681B017A6913437B614A
:104100007B6923F040037B617B68144A934213D19F
:104110003B6923F480633B613B6923F400633B61AB
:104120003B685B699B003A6913433B613B689B6951
:104130009B003A6913433B617B683A695A607B682C
:10414000FA689A613B685A687B689A637B687A6907
:104150001A6200BF1C37BD4680BC7047002C01406E
:1041600080B487B000AF786039607B681B6A23F445
:1041700080727B681A627B681B6A7B617B685B6804
:104180003B617B68DB69FB60FB6823F07003FB60CD
:10419000FB6823F00303FB603B681B68FA6813436A
:1041A000FB607B6923F400737B613B689B681B02A7
:1041B0007A6913437B617B681D4A93420DD17B6909
:1041C00023F400637B613B68DB681B027A6913435D
:1041D0007B617B6923F480637B617B68144A934233
:1041E00013D13B6923F480533B613B6923F40053B3
:1041F0003B613B685B691B013A6913433B613B6868
:104200009B691B013A6913433B617B683A695A60B9
:104210007B68FA68DA613B685A687B68DA637B68B6
:104220007A691A6200BF1C37BD4680BC704700BF68
:10423000002C014080B487B000AF786039607B68A3
:104240001B6A23F480527B681A627B681B6A3B619D
:104250007B685B687B617B68DB69FB60FB6823F4E0
:10426000E043FB60FB6823F44073FB603B681B6822
:104270001B02FA681343FB603B6923F400533B6164
:104280003B689B681B033A6913433B617B680F4A99
:10429000934209D17B6923F480437B613B685B696E
:1042A0009B017A6913437B617B687A695A607B68FA
:1042B000FA68DA613B685A687B681A647B683A6915
:1042C0001A6200BF1C37BD4680BC7047002C0140FD
:1042D00080B487B000AFF860B9607A60FB681B6A91
:1042E0007B61FB681B6A23F00102FB681A62FB68B2
:1042F0009B693B613B6923F0F0033B617B681B01D9
:104300003A6913433B617B6923F00A037B617A6955
:10431000BB6813437B61FB683A699A61FB687A6901
:104320001A6200BF1C37BD4680BC704780B487B09E
:1043300000AFF860B9607A60FB681B6A23F0100276
:10434000FB681A62FB689B697B61FB681B6A3B61C7
:104350007B6923F470437B617B681B037A69134399
:104360007B613B6923F0A0033B61BB681B013A6999
:1043700013433B61FB687A699A61FB683A691A6288
:1043800000BF1C37BD4680BC704780B485B000AF0D
:10439000786039607B689B68FB60FB6823F0700382
:1043A000FB603A68FB68134343F00703FB607B68DC
:1043B000FA689A6000BF1437BD4680BC704780B46D
:1043C00087B000AFF860B9607A603B60FB689B68BB
:1043D0007B617B6923F47F437B613B681A027B68C6
:1043E0001A43BB6813437A6913437B61FB687A699C
:1043F0009A6000BF1C37BD4680BC704780B487B050
:1044000000AFF860B9607A60BB6803F01F03012257
:1044100002FA03F37B61FB681A6A7B69DB431A408B
:10442000FB681A62FB681A6ABB6803F01F037968AD
:1044300001FA03F31A43FB681A6200BF1C37BD463A
:1044400080BC704780B485B000AF786039607B680D
:1044500093F83C30012B01D1022346E07B68012216
:1044600083F83C207B68022283F83D207B681B6830
:104470005B68FB607B681B689B68BB60FB6823F024
:104480007003FB603B681B68FA681343FB607B6842
:104490001B68FA685A607B681B68164A93420ED004
:1044A0007B681B68B3F1804F09D07B681B68124A98
:1044B000934204D07B681B68104A93420CD1BB68BE
:1044C00023F08003BB603B685B68BA681343BB6042
:1044D0007B681B68BA689A607B68012283F83D207C
:1044E0007B68002283F83C20002318461437BD4621
:1044F00080BC7047002C01400004004000080040D0
:1045000080B483B000AF786000BF0C37BD4680BC7C
:10451000704780B483B000AF786000BF0C37BD46F1
:1045200080BC704780B582B000AF78607B68002B9C
:1045300001D101233FE07B6893F83930DBB2002BD7
:1045400006D17B68002283F83820786804F042FAAC
:104550007B68242283F839207B681B68DA687B68D3
:104560001B6822F40052DA60786800F0B3FB7B68C5
:104570001B681A697B681B6822F490421A617B6889
:104580001B685A697B681B6822F02A025A617B68A3
:104590001B68DA687B681B6842F40052DA607B684B
:1045A0000022DA637B68202283F839207B6820228E
:1045B00083F83A20002318460837BD4680BD80B4F2
:1045C00085B000AFF860B9601346FB80FB6893F8D4
:1045D0003A30DBB2202B40D1BB68002B02D0FB88E5
:1045E000002B01D1012339E0FB6893F83830012B0F
:1045F00001D1022332E0FB68012283F83820FB68F6
:10460000BA689A62FB68FA889A85FB68FA88DA8544
:10461000FB680022DA63FB68222283F83A20FB68F9
:10462000002283F83820FB681B68DA68FB681B6887
:1046300042F48072DA60FB681B685A69FB681B6889
:1046400042F001025A61FB681B68DA68FB681B686C
:1046500042F02002DA60002300E0022318461437FB
:10466000BD4680BC7047000080B586B000AFF860E2
:10467000B9601346FB80FB6893F83930DBB2202B1E
:1046800053D1BB68002B02D0FB88002B01D1012342
:104690004CE0FB6893F83830012B01D1022345E050
:1046A000FB68012283F83820BA68FB681A62FB684D
:1046B000FA889A84FB68FA88DA84FB680022DA6355
:1046C000FB68212283F83920FB681B6B194A9A6228
:1046D000FB681B6B184ADA62FB681B6B174A1A638C
:1046E000FB681B6B00225A6307F108037B61FB68C0
:1046F000186B7B691968FB681B6804331A46FB88D2
:10470000FCF7CEFEFB681B686FF040021A60FB6886
:10471000002283F83820FB681B685A69FB681B6815
:1047200042F080025A61002300E002231846183745
:10473000BD4680BD77490008C9490008E549000821
:1047400080B588B000AF78607B681B681B68FB6130
:104750007B681B68DB68BB617B681B685B697B618E
:1047600000233B610023FB60FB6903F00F033B6107
:104770003B69002B0DD1FB6903F02003002B08D00F
:10478000BB6903F02003002B03D0786800F021FA06
:10479000D1E03B69002B00F0B0807B6903F001039E
:1047A000002B05D1BB6903F49073002B00F0A580AA
:1047B000FB6903F00103002B0AD0BB6903F480738B
:1047C000002B05D07B68DB6B43F001027B68DA636A
:1047D000FB6903F00403002B0AD07B6903F001039B
:1047E000002B05D07B68DB6B43F002027B68DA6349
:1047F000FB6903F00203002B0AD07B6903F001037D
:10480000002B05D07B68DB6B43F004027B68DA6326
:10481000FB6903F00803002B0FD0BB6903F02003F2
:10482000002B04D17B6903F00103002B05D07B68CA
:10483000DB6B43F008027B68DA637B68DB6B002B81
:1048400078D0FB6903F02003002B07D0BB6903F08D
:104850002003002B02D0786800F0BBF97B681B684E
:104860005B6903F04003002B14BF01230023DBB27C
:10487000FB607B68DB6B03F00803002B02D1FB6855
:10488000002B31D0786800F00CF97B681B685B69FD
:1048900003F04003002B23D07B681B685A697B68B8
:1048A0001B6822F040025A617B685B6B002B13D0BF
:1048B0007B685B6B214A5A637B685B6B1846FCF72D
:1048C0004FFE0346002B16D07B685B6B5B6B7A68F0
:1048D000526B104698470EE0786800F043F80AE003
:1048E000786800F03FF806E0786800F03BF87B68F5
:1048F0000022DA631EE000BF1CE0FB6903F08003C6
:10490000002B08D0BB6903F08003002B03D078682C
:1049100000F0F8F80FE0FB6903F04003002B0AD029
:10492000BB6903F04003002B05D0786800F039F92B
:1049300000BF00E000BF2037BD4680BDDD4A000853
:1049400080B483B000AF786000BF0C37BD4680BC38
:10495000704780B483B000AF786000BF0C37BD46AD
:1049600080BC704780B483B000AF786000BF0C3764
:10497000BD4680BC704780B584B000AF78607B686E
:104980005B6AFB607B681B681B6803F02003002BDD
:1049900013D1FB680022DA84FB681B685A69FB6844
:1049A0001B6822F080025A61FB681B68DA68FB68AA
:1049B0001B6842F04002DA6002E0F868FFF7C0FFCF
:1049C00000BF1037BD4680BD80B584B000AF7860B1
:1049D0007B685B6AFB60F868FFF7BBFF00BF1037BE
:1049E000BD4680BD80B584B000AF78600023FB6019
:1049F0007B685B6ABB60BB681B685B6903F0800314
:104A0000002B14BF01230023DBB2FB60BB6893F8CB
:104A10003930DBB2212B08D1FB68002B05D0BB68F5
:104A20000022DA84B86800F027F8BB681B685B696D
:104A300003F04003002B14BF01230023DBB2FB6013
:104A4000BB6893F83A30DBB2222B08D1FB68002B0D
:104A500005D0BB680022DA85B86800F022F8BB6890
:104A6000DB6B43F01002BB68DA63B868FFF77AFFCC
:104A700000BF1037BD4680BD80B483B000AF786002
:104A80007B681B68DA687B681B6822F0C002DA600A
:104A90007B68202283F8392000BF0C37BD4680BCDC
:104AA000704780B483B000AF78607B681B68DA68B9
:104AB0007B681B6822F49072DA607B681B685A6915
:104AC0007B681B6822F001025A617B68202283F810
:104AD0003A2000BF0C37BD4680BC704780B584B01B
:104AE00000AF78607B685B6AFB60FB680022DA8558
:104AF000FB680022DA84F868FFF734FF00BF103744
:104B0000BD4680BD80B485B000AF78607B6893F807
:104B10003930DBB2212B3ED17B689B68B3F5805FD7
:104B200014D17B681B69002B10D17B681B6AFB606A
:104B3000FB681B881A467B681B68C2F308025A6030
:104B40007B681B6A9A1C7B681A6208E07B681B6A98
:104B5000591C7A6811621A787B681B685A607B68F6
:104B6000DB8C9BB2013B9BB27A681946D184002B47
:104B70000FD17B681B68DA687B681B6822F08002B3
:104B8000DA607B681B68DA687B681B6842F0400269
:104B9000DA60002300E0022318461437BD4680BCCB
:104BA000704780B582B000AF78607B681B68DA68B8
:104BB0007B681B6822F04002DA607B68202283F861
:104BC00039207868FFF7BCFE002318460837BD4639
:104BD00080BD80B584B000AF78607B6893F83A30D0
:104BE000DBB2222B70D17B689B68B3F5805F17D155
:104BF0007B681B69002B13D10023FB607B689B6AD9
:104C0000BB607B681B685B689BB2C3F308039AB206
:104C1000BB681A807B689B6A9A1C7B689A6226E054
:104C20007B689B6AFB600023BB607B689B68B3F575
:104C3000805F07D07B689B68002B0AD17B681B696B
:104C4000002B06D17B681B685B68DAB2FB681A70C0
:104C500008E07B681B685B68DBB203F07F03DAB2B5
:104C6000FB681A707B689B6A5A1C7B689A627B6837
:104C7000DB8D9BB2013B9BB27A681946D185002B34
:104C800020D17B681B68DA687B681B6822F02002F1
:104C9000DA607B681B68DA687B681B6822F48072C4
:104CA000DA607B681B685A697B681B6822F0010226
:104CB0005A617B68202283F83A20786800F09CFED5
:104CC000002302E0002300E0022318461037BD460F
:104CD00080BD000080B584B000AF78607B681B6841
:104CE0001B6923F440517B68DA687B681B680A43C0
:104CF0001A617B689A687B681B691A437B685B69E9
:104D00001343BB607B681B68DB6823F4B05323F05C
:104D10000C037A681268B9680B43D3607B681B6820
:104D20005B6923F440717B689A697B681B680A435E
:104D30005A617B681B682C4A934203D1FEF71EFB25
:104D4000F86002E0FEF706FBF860FA6813469B0085
:104D500013449A001A447B685B689B00B2FBF3F330
:104D6000224AA2FB03235B091901FA6813469B0040
:104D700013449A001A447B685B689B00B2FBF3F211
:104D80001A4BA3FB02035B09642000FB03F3D31A55
:104D90001B013233154AA2FB03235B0903F0F00326
:104DA0001944FA6813469B0013449A001A447B681E
:104DB0005B689B00B2FBF3F20C4BA3FB02035B09A5
:104DC000642000FB03F3D31A1B013233074AA2FB12
:104DD00003235B0903F00F027B681B680A449A6097
:104DE00000BF1037BD4680BD003801401F85EB5124
:104DF00080B58AB00AAF4FF07E538D4A00218D48AE
:104E000001F012FE4FF07E53894A0121894801F0DA
:104E10000BFE4FF07E53864A0021874801F02FFE9B
:104E20004FF07E530293854B01930023009302239E
:104E300000220021824801F0CBFE4FF07E53029306
:104E4000804B0193002300930223012200217C4820
:104E500001F0BEFE4FF07E5302937B4B0193002383
:104E60000093012302220021754801F0B1FE4FF0AA
:104E70007E530293754B0193002300930223032278
:104E800000216F4801F0A4FE4FF07E530293704B57
:104E9000019300230093022304220021684801F0BB
:104EA00097FE4FF07E5302936A4B019300230093C9
:104EB000012305220121624801F08AFE4FF07E5352
:104EC0000293654B019300230093012306220121E5
:104ED0005B4801F07DFE4FF07E5302935F4B0193E0
:104EE00000230093012307220121554801F070FEA1
:104EF0004FF07E5302935A4B0193002300930123FA
:104F0000082201214E4801F063FE4FF07E530293C8
:104F1000544B0193002300930123092201214848A7
:104F200001F056FE4FF07E5302934F4B0193002346
:104F300000931323002200214C4801F049FE4FF05A
:104F40007E5302934A4B01930023009313230122C3
:104F50000021464801F03CFE4FF07E530293454B42
:104F60000193002300931323022200213F4801F004
:104F70002FFE4FF07E5302933F4B0193002300938B
:104F8000132303220021394801F022FE4FF07E5303
:104F900002933A4B01930023009313230422002130
:104FA000324801F015FE4FF07E530293344B0193CB
:104FB000002300931323052200212C4801F008FE52
:104FC0004FF07E5302932F4B019300230093132342
:104FD00006220021254801F0FBFD192308932A4BE6
:104FE00007932A4B06938C230593204B0493C823E5
:104FF0000393134B0293342301930F4B0093182315
:105000000C4A0121224801F037FC012202212048EC
:1050100001F0C0FB012200211D4801F0BBFB04226E
:1050200001211B4801F0B6FB00BFBD4680BD00BF9B
:10503000000080BFB4020020CC02002050A0000875
:105040000003002060A0000870A000087CA00008F9
:105050008CA000089CA00008A8A00008B4A000082C
:10506000C0A00008CCA00008D8A00008C8030020F9
:10507000DCA00008E0A00008E4A00008E8A0000808
:10508000ECA00008F0A0000854040020BC9E00081A
:105090005402002080B582B000AF786039607B6830
:1050A0001B681A460021114801F056FD7B68043345
:1050B0001B681A4601210D4801F04EFD0C4801F015
:1050C00064FE0B4802F090FA0346002B02DD08480C
:1050D00002F045F90021074801F05EFD02463B68F9
:1050E0001A6000BF0837BD4680BD00BFB402002073
:1050F00054020020CC02002080B500AFFCF706F877
:1051000000F01EF800F04CFA00F02CFA00F05AF80B
:1051100000F056F900F0A8F900F0FAF900F0D0F824
:1051200000F07EF800F038FDFFF762FE042202492D
:105130000248FFF799FAFEE7649E0008580600202F
:1051400080B590B000AF07F118032822002118465F
:1051500003F0BAFD3B1D00221A605A609A60DA60C3
:105160001A610223BB610123BB621023FB6202238D
:105170007B630023BB634FF46013FB6307F11803E9
:105180001846FDF711FD0346002B01D000F09CFDF1
:105190000F237B600223BB600023FB604FF480631E
:1051A0003B6100237B613B1D02211846FDF77CFF1C
:1051B0000346002B01D000F087FD00BF4037BD46FD
:1051C00080BD000080B500AF124B134A1A60114B2E
:1051D000124A5A600F4B00229A600E4B0022DA608E
:1051E0000C4B4FF480421A610A4B00225A61094B62
:1051F00000229A61074B0022DA61064B00221A62F4
:105200000448FCF7E3FC0346002B01D000F05CFDF2
:1052100000BF80BD7005002000540040A086010042
:1052200080B586B000AF07F1080300221A605A600B
:105230009A60DA603B4600221A605A601E4B1F4A91
:105240001A601D4B3F225A601B4B00229A601A4B7A
:1052500040F2CF72DA60184B00221A61164B00221E
:105260005A61154B00229A611348FEF7B9F80346BC
:10527000002B01D000F028FD4FF48053BB6007F1F4
:10528000080319460C48FEF75DFD0346002B01D0CC
:1052900000F01AFD00233B6000237B603B4619466B
:1052A0000548FFF7CFF80346002B01D000F00CFDB6
:1052B00000BF1837BD4680BDD4060020002C014039
:1052C00080B58EB000AF07F1280300221A605A6043
:1052D0009A60DA6007F1200300221A605A603B1DD1
:1052E00000221A605A609A60DA601A615A619A6103
:1052F000324B4FF080421A60304B07225A602F4BDE
:1053000000229A602D4B40F2CF72DA602B4B0022C4
:105310001A612A4B00229A612848FEF761F8034679
:10532000002B01D000F0D0FC4FF48053BB6207F19A
:10533000280319462148FEF705FD0346002B01D03E
:1053400000F0C2FC1D48FEF7EDF80346002B01D02B
:1053500000F0BAFC00233B6200237B6207F12003CC
:1053600019461648FFF76EF80346002B01D000F0EF
:10537000ABFC60237B600023BB600023FB60002349
:105380007B613B1D002219460C48FEF71DFC0346BD
:10539000002B01D000F098FC3B1D04221946074861
:1053A000FEF712FC0346002B01D000F08DFC0348F1
:1053B00003F0E0FA00BF3837BD4680BD2807002063
:1053C00080B58CB000AF07F10C03242200211846F1
:1053D00003F07AFC3B1D00221A605A60204B214AE0
:1053E0001A601F4B00225A601D4B00229A601C4B12
:1053F0004FF6FF72DA601A4B00221A61184B8022B6
:105400009A610323FB6000233B6101237B6100233E
:10541000BB610A23FB6100233B6201237B62002303
:10542000BB620023FB6207F10C0319460C48FEF730
:1054300073F90346002B01D000F046FC00237B608B
:105440000023BB603B1D19460548FEF7FBFF0346E2
:10545000002B01D000F038FC00BF3037BD4680BDC6
:10546000CC0500200004004080B58CB000AF07F1EF
:105470000C0324220021184603F026FC3B1D0022C9
:105480001A605A60204B214A1A601F4B00225A6052
:105490001D4B00229A601C4B4FF6FF72DA601A4BCC
:1054A00000221A61184B80229A610323FB600023BB
:1054B0003B6101237B610023BB610A23FB61002365
:1054C0003B6201237B620023BB620023FB6207F186
:1054D0000C0319460C48FEF71FF90346002B01D0B8
:1054E00000F0F2FB00237B600023BB603B1D1946EC
:1054F0000548FEF7A7FF0346002B01D000F0E4FBB0
:1055000000BF3037BD4680BD2805002000080040A0
:1055100080B500AF114B124A1A60104B4FF416526F
:105520005A600E4B00229A600C4B0022DA600B4B43
:1055300000221A61094B0C225A61084B00229A6121
:10554000064B0022DA610548FEF7ECFF0346002B0C
:1055500001D000F0B9FB00BF80BD00BF580600209D
:105560000038014080B582B000AF0C4B5B690B4A3C
:1055700043F001035361094B5B6903F001037B6056
:105580007B68002200210E20FBF7F9FE0E20FBF7BE
:1055900012FF00BF0837BD4680BD00BF00100240AB
:1055A00080B58AB000AF07F1140300221A605A6078
:1055B0009A60DA60574B9B69564A43F01003936137
:1055C000544B9B6903F010033B613B69514B9B6952
:1055D000504A43F0200393614E4B9B6903F0200334
:1055E000FB60FB684B4B9B694A4A43F004039361A1
:1055F000484B9B6903F00403BB60BB68454B9B6948
:10560000444A43F008039361424B9B6903F008034B
:105610007B607B6800224FF4C0413F48FCF7A4FA4E
:10562000002201213D48FCF79FFA00224FF49471BB
:105630003B48FCF799FA002208213A48FCF794FA13
:105640004FF400537B610123BB610023FB61022304
:105650003B6207F1140319462F48FCF72BF94FF46E
:1056600080437B610123BB610223FB6102233B6218
:1056700007F1140319462848FCF71CF901237B6144
:105680000123BB610223FB6102233B6207F1140388
:1056900019462248FCF70EF928237B610123BB61E0
:1056A0000023FB6102233B6207F1140319461C48E7
:1056B000FCF700F94FF480737B610123BB61012388
:1056C000FB6102233B6207F1140319461448FCF7FF
:1056D000F1F808237B610123BB610023FB610223F6
:1056E0003B6207F1140319460E48FCF7E3F80E4B32
:1056F0005B687B627B6A43F0E0637B627B6A43F4B6
:1057000000437B62084A7B6A536000BF2837BD466E
:1057100080BD00BF00100240001001400014014095
:1057200000080140000C01400000014080B582B03B
:1057300000AF78607B681A68964B1B689A4240F00D
:105740002481954B1B780133DAB2934B1A70924B3C
:105750001B78042B40F219818F4B00221A708F4B5B
:105760001B8801339AB28D4B1A808C4B1B88312BCE
:1057700013D98B4B1B681846FBF782FC03461BB200
:105780001A468849884803F0A7FA32228649874892
:10579000FEF76AFF814B00221A80854800F0F0FA7C
:1057A000844B1B68844A1360814B1B6B4FF0804114
:1057B0001846FBF797F903461A467E4B1A607C4B56
:1057C0001B6A7E4A13607B4B1A687D4B1B68194627
:1057D0001046FBF743FB03461A467A4B1A60774B99
:1057E0001A68794B1B6819461046FBF737FB0346CE
:1057F0001A46744B5A6075497248FFF74BFC6D4B63
:105800001B6873491846FBF71DFC0346002B08D1A3
:10581000684B1B686F491846FBF71EFC0346002BBC
:1058200007D06D4B1B78012B03D16B4B00221A70F4
:1058300018E0604B1B6866491846FBF70DFC0346F1
:10584000002B0FD05B4B1B6862491846FBF7FAFB35
:105850000346002B06D0604B1B78002B02D15E4B19
:1058600001221A70594B1A685C4B1B681946104686
:10587000FBF740FA03461A46494B1A60484B1B682F
:1058800057491846FBF7DEFB0346002B08D0554B63
:105890004FF631021A80544B4FF631021A8023E042
:1058A0003F4B1B6851491846FBF7D6FB0346002BBC
:1058B00008D04C4B40F2CF721A804B4B40F2CF7263
:1058C0001A8011E0364B1B681846FBF7D9FB0346DC
:1058D0001AB2444B1A80324B1B681846FBF7D0FBB8
:1058E00003461AB2404B1A803E4BB3F90030002BEE
:1058F00003DB3F4B00221A700BE03D4B01221A7074
:10590000384BB3F900309BB25B429BB21AB2354BB5
:105910001A80354BB3F90030002B03DB354B0122E5
:105920001A700BE0334B00221A702F4BB3F9003082
:105930009BB25B429BB21AB22B4B1A80264B1B7850
:10594000012B14D12A4B1978264BB3F900309BB2A6
:105950001A46002000F06AF9264B1978224BB3F959
:1059600000309BB21A46012000F060F90DE0204B98
:105970001B7800221946002000F058F91D4B1B78B7
:1059800000221946012000F051F900BF0837BD463A
:1059900080BD00BFD4060020CC04002004050020F8
:1059A000C80500206C9E0008D00400205806002086
:1059B00098060020700700207807002020070020AC
:1059C00008000020CC0600200C0000201C0700204E
:1059D000000020C20000204202050020100000202C
:1059E00000E0F9C4740700202405002000E0F94419
:1059F0002205002024070020B0B58CB002AF7860EB
:105A00007B681A68554B1B689A4240F0A3804FF49C
:105A100080715348FCF7C0F8002387F827305149BC
:105A2000514803F093F9386212E097F827309B0051
:105A300007F1280213443A6A43F8202C97F82730DC
:105A4000013387F827304749002003F07FF9386297
:105A50003B6A002BE9D1BB684449184603F05CF966
:105A60000346002B0BD0FB68184603F0FEF80346F4
:105A70001846FBF7EBF802463D4B1A6017E0BB688F
:105A80003C49184603F048F90346002B0FD03A4B27
:105A90001B78002B03D1384B01221A7002E0364BE1
:105AA00000221A70062235492C48FEF7DDFD3B69BD
:105AB0003349184603F030F90346002B0AD07B69BE
:105AC000184603F0D2F803461846FBF7BFF8024623
:105AD0002C4B1A60BB692C49184603F01DF903468C
